:100000000C9473000C949B000C949B000C949B002C
:100010000C949B000C949B000C949B000C949B00F4
:100020000C949B000C949B000C949B000C94340B40
:100030000C949B000C949B000C949B000C949B00D4
:100040000C94920A0C949B000C94020B0C94DC0A06
:100050000C949B000C949B000C949B000C949B00B4
:100060000C94F00B0C949B0030333A30393A303317
:10007000004665622032342032303233001F1C1FAC
:100080001E1F1E1F1F1E1F1E000000002400270031
:100090002A0000000000250028002B0000000008B6
:1000A000000201000003040700000000000000003F
:1000B00000000000230026002900040404040404B6
:1000C0000404020202020202030303030303010207
:1000D00004081020408001020408102001020408D6
:1000E00010201C0DE21311241FBECFEFD8E0DEBF9D
:1000F000CDBF12E0A0E0B1E0EEEDF1E302C005906B
:100100000D92A039B107D9F724E0A0E9B2E001C00F
:100110001D92AA36B207E1F710E0C2E7D0E004C0B2
:100120002197FE010E94EA16C137D107C9F70E9444
:10013000C40D0C94E2180C940000CF92DF92EF9261
:10014000FF92CF93DF93B0914B04A0E08111AB2FCE
:1001500080914C0490E0880F991FAC0140555F4F8F
:10016000C0905104D0905204E0905304F090540495
:1001700030E020E0FA01C591D491E881B90190E026
:1001800080E0EB23EA130AC02F5F3F4F6C157D051B
:100190008E059F0578F36FEF7FEFCB01DF91CF9155
:1001A000FF90EF90DF90CF900895089508958330E9
:1001B00081F028F4813099F08230A9F008958730D9
:1001C000A9F08830C9F08430B1F4809180008F7D2F
:1001D00003C0809180008F7780938000089584B55C
:1001E0008F7784BD089584B58F7DFBCF8091B0005B
:1001F0008F778093B00008958091B0008F7DF9CF04
:100200001F93CF93DF93282F30E0F901E456FF4F7F
:100210008491F901E253FF4FD491F901E654FF4F65
:10022000C491CC23A9F0162F81110E94D700EC2F86
:10023000F0E0EE0FFF1FEE56FF4FA591B4918FB780
:10024000F894EC91111108C0D095DE23DC938FBF98
:10025000DF91CF911F910895DE2BF8CFCF93DF93DD
:1002600090E0FC01E253FF4F249186549F4FFC0124
:1002700084918823C9F090E0880F991FFC01E8570A
:10028000FF4FA591B491FC01EE56FF4FC591D4915B
:1002900061110DC09FB7F8948C91209582238C93A7
:1002A0008881282328839FBFDF91CF9108956230F2
:1002B00051F49FB7F8943C91822F809583238C93BF
:1002C000E8812E2BEFCF8FB7F894EC912E2B2C9347
:1002D0008FBFEACF3FB7F8948091EC029091ED0286
:1002E000A091EE02B091EF0226B5A89B05C02F3F6A
:1002F00019F00196A11DB11D3FBFBA2FA92F982F4C
:100300008827BC01CD01620F711D811D911D42E046
:10031000660F771F881F991F4A95D1F708958F920E
:100320009F92AF92BF92CF92DF92EF92FF924B01DA
:100330005C010E946A016B017C010E946A016C19D8
:100340007D098E099F09683E734081059105A8F3D8
:1003500021E0821A9108A108B10888EEC80E83E056
:10036000D81EE11CF11C81149104A104B10429F7E9
:10037000FF90EF90DF90CF90BF90AF909F908F90C5
:100380000895CF92DF92EF92FF920F931F93CF9336
:10039000DF93CDB7DEB7C054D1400FB6F894DEBFBF
:1003A0000FBECDBF2FB7F8948091F4029091F50263
:1003B000A091F602B091F7022FBF40914D045091E9
:1003C0004E0460914F04709150048C019D01041BF8
:1003D000150B260B370BB901A801403D57406105AD
:1003E000710590F480915504C05CDE4F0FB6F8940F
:1003F000DEBF0FBECDBFDF91CF911F910F91FF9058
:10040000EF90DF90CF90089580934D0490934E0429
:10041000A0934F04B09350041092480410924704E4
:1004200010924604109245041092440462E08091B8
:1004300049040E942E0161E070E080E090E00E949B
:100440008F0161E0809149040E942E0160E080915B
:1004500049040E94000180914A048551823020F5B0
:100460008BE291E10197F1F762E0809149040E94EB
:100470002E018091560490E08230910538F0880F6B
:10048000991F880F991F05970197F1F7F89480E05D
:100490000E949D006F3F7F4F8F4F9F4F61F41092DE
:1004A0005504789480E0A0CF64E170E080E090E0B3
:1004B0000E948F01D9CF81E00E949D006F3F7F4F46
:1004C0008F4F9F4F61F38E010F5F1F4F6E018FEBB8
:1004D000C81A8EEFD80A780180E00E949D00F701CB
:1004E000608371838283938381E00E949D00F70182
:1004F0006483758386839783F8E0EF0EF11CEC1418
:10050000FD0451F7789430E020E0F801C080D180FC
:10051000E280F3804481558166817781FFEFCF16B9
:10052000DF06EF06FF0631F04F3F8FEF58076807F1
:10053000780719F410925504B5CFF90183E0F595C9
:10054000E7958A95E1F7EC5BFB4F8081880FC41635
:10055000D506E606F70610F180832F5F3F4F085F50
:100560001F4F2832310589F64091480420914404F8
:1005700080914504280F3327331F80914604280FAC
:10058000311D80914704820F932F911D99274817A1
:10059000190681F681E08093550426CF8160DCCF77
:1005A000DC01ED91FC910190F081E02D0994AF9276
:1005B000BF92CF92DF92EF92FF920F931F93CF9350
:1005C000DF936C017B018B01040F151FEB015E01B2
:1005D000AE18BF08C017D10759F06991D601ED9147
:1005E000FC910190F081E02DC6010995892B79F7E6
:1005F000C501DF91CF911F910F91FF90EF90DF9098
:10060000CF90BF90AF900895FC01538D448D252F5E
:1006100030E0842F90E0821B930B541710F0CF969C
:10062000089501970895FC01918D828D981761F0CE
:10063000A28DAE0FBF2FB11D5D968C91928D9F5FE5
:100640009F73928F90E008958FEF9FEF0895FC01C4
:10065000918D828D981731F0828DE80FF11D858D77
:1006600090E008958FEF9FEF0895FC01918D228D0A
:10067000892F90E0805C9F4F821B91098F7399278F
:1006800008958AE693E00E94350321E0892B09F45E
:1006900020E0822F089580E090E0892B29F00E94CD
:1006A000410381110C9400000895FC01A48DA80F52
:1006B000B92FB11DA35ABF4F2C91848D90E00196A4
:1006C0008F739927848FA689B7892C93A089B189C4
:1006D0008C91837080648C93938D848D981306C065
:1006E0000288F389E02D80818F7D80830895EF92C9
:1006F000FF920F931F93CF93DF93EC0181E0888FDC
:100700009B8D8C8D98131AC0E889F989808185FFAB
:1007100015C09FB7F894EE89FF896083E889F9894D
:1007200080818370806480839FBF81E090E0DF914F
:10073000CF911F910F91FF90EF900895F62E0B8DA2
:1007400010E00F5F1F4F0F731127E02E8C8D8E115D
:100750000CC00FB607FCFACFE889F989808185FFC4
:10076000F5CFCE010E945503F1CFEB8DEC0FFD2F9D
:10077000F11DE35AFF4FF0829FB7F8940B8FEA897F
:10078000FB8980818062CFCFCF93DF93EC01888D8E
:100790008823B9F0AA89BB89E889F9898C9185FDFC
:1007A00003C0808186FD0DC00FB607FCF7CF8C918A
:1007B00085FFF2CF808185FFEDCFCE010E945503EA
:1007C000E9CFDF91CF91089508952091B102260FCE
:1007D0003327331F21323105ECF420914003FC0113
:1007E00090E080E0243069F082E00895A091B102A9
:1007F0002191AC014F565D4FA40FB52FB11D2C9325
:100800000196861798F38091B102680F6093B10248
:1008100080E0089581E008951092400381E0809384
:100820003F0310921A0361E082E10E94000161E03F
:1008300083E10E940001E9EBF0E080818E7F8083FC
:1008400080818D7F808388E48093B80085E48093E5
:10085000BC0008951092F9021092F802109247031A
:10086000109269030E940C0485ED90E09093F302CE
:100870008093F20286ED90E09093F1028093F00273
:100880000895CF93DF9391E0909390028823B9F07D
:10089000C091B800D091BA008091BC008A7B80934F
:1008A000BC0060E082E10E94000160E083E10E9400
:1008B00000010E940C04D093BA00C093B800DF91ED
:1008C000CF9108958F929F92AF92BF92CF92DF9275
:1008D000EF92FF920F931F93CF93DF93D091690311
:1008E000D13208F0D7C0182FC09168030E946A0166
:1008F0006B017C018091400381116BC082E0809389
:10090000400310933F038FEF80933E0310923D030B
:10091000D0933C03A8E4B3E0ECE1F3E080E0D8132B
:1009200091C010921B0380911B03CC0FC82BC09366
:100930001B0380911A03813009F088C010921A03BA
:100940000E946A016B017C0180911B038093BB00B4
:100950008091420390914303A0914403B0914503D9
:10096000892B8A2B8B2BA1F00E946A0100914203F4
:100970001091430320914403309145036C197D0984
:100980008E099F09061717072807390708F442C080
:100990008091BC0083FDD8CF85EC8093BC000E9481
:1009A0006A016B017C0180914003823009F450C0E0
:1009B00080913E038F3F09F46FC080913E038032E7
:1009C00009F46CC080913E03803309F469C084E06F
:1009D00026C08091420390914303A0914403B091BB
:1009E0004503892B8A2B8B2B09F484CF0E946A0143
:1009F0008090420390904303A0904403B09045033D
:100A00006C197D098E099F0986169706A806B906F6
:100A100008F070CF809141030E94410485E010925C
:100A200047031092690310924603DF91CF911F9103
:100A30000F91FF90EF90DF90CF90BF90AF909F907D
:100A40008F9008959D9191938F5F69CF85EEA5CF8B
:100A50008091420390914303A0914403B0914503D8
:100A6000892B8A2B8B2B09F49ECF0E946A0100915F
:100A700042031091430320914403309145036C19C4
:100A80007D098E099F09061717072807390708F0FF
:100A90008ACFC0CF81E0C3CF80E0C1CF82E0BFCF9B
:100AA00083E0BDCF0895E091F9028091F802E81744
:100AB00030F4F0E0E650FD4F808190E008958FEF34
:100AC0009FEF08959091F9028091F8022FEF3FEF88
:100AD000981748F4E92FF0E0E650FD4F208130E010
:100AE0009F5F9093F902C90108958091F802909157
:100AF000F902891B990B0895CF92DF92EF92FF9232
:100B00000F931F93CF93DF937C01CB018A01209138
:100B10004603222389F0EB016B01C40ED51ECC15D0
:100B2000DD0569F06991D701ED91FC910190F081AB
:100B3000E02DC7010995F3CF642F0E94E503C8019A
:100B4000DF91CF911F910F91FF90EF90DF90CF90A9
:100B50000895CF93DF931F92CDB7DEB769832091BD
:100B600046032223F9F020916903203258F021E056
:100B700030E0FC013383228390E080E00F90DF912E
:100B8000CF91089580914703E82FF0E0E85BFC4F98
:100B9000998190838F5F809347038093690381E0FD
:100BA00090E0ECCF61E0CE0101960E94E503F7CF23
:100BB000FC01248131E030934603209368031092B6
:100BC0004703109269038385682B87E094E00E94B5
:100BD000A90581E00C94620490E080E008951F93E1
:100BE000CF93DF93EA01122FDC0111968D919C9136
:100BF000DC01ED91FC910280F381E02D0995C8178D
:100C0000D90729F4812F0E94620491E0811190E0BC
:100C1000892FDF91CF911F910895CF93DF93EC013E
:100C20008B818823A1F0888191E090934603809383
:100C30006803109247031092690381E00E946204E6
:100C400091E0811190E0892FDF91CF9108950E946A
:100C50002A0481E08B83CE010E940D06982F81111A
:100C6000E2CFF1CF8F929F92AF92BF92FF920F93FC
:100C70001F93CF93DF93F09063049BE09F1508F4DC
:100C80004DC09091650408E512E0091B110997FD1C
:100C90001395000F111F000F111F90916404C8E8F5
:100CA000D0E0C91BD10997FDD395CC0FDD1FCC0F28
:100CB000DD1F4E010D2E000CAA08BB089801012E65
:100CC000000C440B550B281939094A095B09A82F58
:100CD000B0E00E943F1524EB30E040E050E00E947D
:100CE0002015820E931EA41EB51E8C169D062CF098
:100CF000E801801691060CF4E4012297CC0FDD1F69
:100D00002FB7F8948F2D90E0FC01EE0FFF1FE80F36
:100D1000F91FED5EFB4FD283C1832FBF6FE070E000
:100D200080E090E0DF91CF911F910F91FF90BF90F5
:100D3000AF909F908F900C948F012F923F924F9283
:100D40005F926F927F928F929F92AF92BF92CF925B
:100D5000DF92EF92FF920F931F93CF93DF935C018B
:100D60001B016A01F12CE12CD50114968D919C9107
:100D700086010E191F098017910708F48C01F501EF
:100D8000D0810E946A012B013C01809140038111B6
:100D900072C0C02F013208F0C0E2F1E0F0934003CE
:100DA00021E0C601801B910BE816F90608F420E04B
:100DB00020933F038FEF80933E0310923D038C0FEF
:100DC00080933C03A1E0A0931B0380911B03DD0FE4
:100DD000D82BD0931B0380911A03813009F090C067
:100DE00010921A030E946A012B013C0180911B039F
:100DF0008093BB008091420390914303A0914403F0
:100E0000B0914503892B8A2B8B2BA1F00E946A019C
:100E10002091420330914303409144035091450394
:100E2000641975098609970926173707480759076E
:100E300008F442C08091BC0083FDD8CFB5ECB093DC
:100E4000BC000E946A012B013C018091400381306B
:100E500009F45AC080913D038C1710F4C0913D03F2
:100E6000ACE1B3E0EAEFF2E080E08C1751F19D9144
:100E700091938F5FFACF8091420390914303A091A9
:100E80004403B0914503892B8A2B8B2B09F47DCF2A
:100E90000E946A0120914203309143034091440330
:100EA0005091450364197509860997092617370774
:100EB0004807590708F069CF809141030E94410417
:100EC000C0E01092F902C093F802C017110609F0B1
:100ED00057C041018E0C9F1CE401CE01881999096D
:100EE0008017910798F5D50111968D919C91DC01A1
:100EF000ED91FC910284F385E02D09958993EDCF66
:100F0000E5EEE093BC009DCF8091420390914303B6
:100F1000A0914403B0914503892B8A2B8B2B09F4B4
:100F200094CF0E946A012091420330914303409183
:100F300044035091450364197509860997092617DA
:100F400037074807590708F080CFB6CFE00EF11EEB
:100F5000EC14FD0408F408CF81E0DF91CF911F91DC
:100F60000F91FF90EF90DF90CF90BF90AF909F9048
:100F70008F907F906F905F904F903F902F9008954B
:100F800080E0EBCF0F931F93CF938C01C62F0E946D
:100F9000D8056C2F6460C8010E94D8056C2F6B7F48
:100FA000C8010E94D80583EC90E00197F1F7CF913A
:100FB0001F910F9108950F931F93CF93DF938C018F
:100FC000D62FC42F607F642B0E94C20780E1D89F78
:100FD000B00111246C2BC801DF91CF911F910F91AB
:100FE0000C94C207CF93DF93CDB7DEB728970FB627
:100FF000F894DEBF0FBECDBF98E0EAE5F1E0DE0178
:10100000119601900D929A95E1F790915F049817CF
:1010100010F48FEF890F90E0880F991F21E030E0E6
:101020002C0F3D1F820F931FFC016081606840E020
:1010300087E594E028960FB6F894DEBF0FBECDBFCB
:10104000DF91CF910C94DB0740E061E087E594E00D
:101050000E94DB078BE39FE10197F1F7089541E0E0
:101060000E94DB0781E090E00895FB0101900020E1
:10107000E9F73197AF01461B570BDC01ED91FC916D
:101080000280F381E02D09948F929F92AF92BF92DC
:10109000EF92FF920F931F93CF93DF93CDB7DEB7FD
:1010A000A1970FB6F894DEBF0FBECDBF7C01FA0149
:1010B000CB0119A2223008F42AE08E010F5D1F4FE8
:1010C000822E912CB12CA12CBF01A50194010E946C
:1010D0008115F901CA016A300CF5605DD8016E9383
:1010E0008D01232B242B252B79F790E080E010979E
:1010F00021F0BD01C7010E943508A1960FB6F894F2
:10110000DEBF0FBECDBFDF91CF911F910F91FF903A
:10111000EF90BF90AF909F908F900895695CDECF65
:10112000CF92DF92EF92FF920F931F93CF93DF93B3
:101130006B01770FEE08FF08F7FE1BC0EC016DE2B4
:101140000E94D0028C0144275527BA014C195D0931
:101150006E097F092AE0CE010E944408800F911F8A
:10116000DF91CF911F910F91FF90EF90DF90CF9083
:1011700008952AE0B701A601DF91CF911F910F9149
:10118000FF90EF90DF90CF900C9444082F923F9205
:101190004F925F926F927F928F929F92AF92BF9287
:1011A000CF92DF92EF92FF921F93CF93DF93EC01E8
:1011B0006A017B01722EAB019601CB01B6010E9440
:1011C000C51662E971E0811126C046015701E89415
:1011D000B7F82FEF3FEF4FE75FE7C501B4010E947B
:1011E000C51681110CC02FEF3FEF4FE75FE7C50138
:1011F000B4010E94FC1366E971E0181664F02FEF49
:101200003FEF4FE75FE4C701B6010E94C016181612
:10121000B4F46AE971E0CE01DF91CF911F91FF90A4
:10122000EF90DF90CF90BF90AF909F908F907F9086
:101230006F905F904F903F902F900C9435082FEF58
:101240003FEF4FE75FECC701B6010E94FC1387FD3B
:10125000E0CF20E030E0A901C701B6010E94FC13F5
:10126000312C212C87FF09C06DE2CE010E94D002F3
:101270001C01F7FAF094F7F8F09410E060E070E0E9
:1012800080E09FE3711641F020E030E040E251E45D
:101290000E941F161F5FF6CFA70196010E94B3158B
:1012A0002B013C010E9491164B015C012AE0BC011C
:1012B000A401CE010E9444087C01E20CF31C11231E
:1012C000C1F1C501B4010E9401149B01AC01C3012D
:1012D000B2010E94B2154B015C016EE2CE010E9488
:1012E000D002E80EF91E115020F120E030E040E27B
:1012F00051E4C501B4010E9462142B013C010E941B
:1013000091164B01B12CA12C2AE0B501A401CE010C
:101310000E944408E80EF91EC501B4010E940114A0
:101320009B01AC01C301B2010E94B2154B015C01EB
:10133000DACFC701DF91CF911F91FF90EF90DF903F
:10134000CF90BF90AF909F908F907F906F905F9065
:101350004F903F902F9008956EE971E00C943508FE
:10136000CF93DF93FC01448155816081718187E5D2
:1013700094E00E94D702EC0187E594E00E94AC095A
:101380008C0F9D1FDF91CF9108950F931F93CF93E3
:10139000DF93EC010E9435088C01CE010E94AC095C
:1013A000800F911FDF91CF911F910F910895CF93DF
:1013B000DF93EC0188819981009711F00E948C17CE
:1013C000198218821D821C821B821A82DF91CF91A2
:1013D00008950F931F93CF93DF93EC018881998138
:1013E000009759F02A813B812617370730F081E0BA
:1013F000DF91CF911F910F9108958B016F5F7F4F08
:101400000E941518009759F0998388831B830A83DB
:101410002C813D81232B59F7FC011082E8CF80E01D
:10142000E7CFCF93DF93EC01198218821B821A82D7
:101430001D821C8270E060E00E94E909811105C0F4
:10144000CE01DF91CF910C94D7091D821C8260EAF6
:1014500071E088819981DF91CF910C94DB18EF9234
:10146000FF920F931F93CF93DF938C017B01EB01CE
:1014700009900020E9F72197C61BD70BBE010E94F7
:10148000E909811109C0C801DF91CF911F910F9126
:10149000FF90EF900C94D709F801D583C483B7016E
:1014A00080819181DF91CF911F910F91FF90EF90FB
:1014B0000C94DB1885ED8093BC00809142039091E1
:1014C0004303A0914403B09145030796A11DB11DAC
:1014D00023E0B695A795979587952A95D1F7209102
:1014E000BC0024FD03C010924003089540914203C4
:1014F000509143036091440370914503452B462B63
:10150000472B69F30097A105B10541F02AE22A951E
:10151000F1F700C00197A109B109E1CF8091410322
:101520000C9441041F920F920FB60F9211242F9327
:101530003F938F939F93AF93BF938091F4029091C9
:10154000F502A091F602B091F7023091EB0223E090
:10155000230F2D3758F50196A11DB11D2093EB02E5
:101560008093F4029093F502A093F602B093F702F1
:101570008091EC029091ED02A091EE02B091EF0209
:101580000196A11DB11D8093EC029093ED02A093F2
:10159000EE02B093EF02BF91AF919F918F913F9177
:1015A0002F910F900FBE0F901F90189526E8230FD4
:1015B0000296A11DB11DD2CF1F920F920FB60F92AE
:1015C00011242F933F934F935F936F937F938F9348
:1015D0009F93AF93BF93EF93FF938AE693E00E94AC
:1015E0005503FF91EF91BF91AF919F918F917F91A3
:1015F0006F915F914F913F912F910F900FBE0F9080
:101600001F9018951F920F920FB60F9211242F93CF
:101610008F939F93EF93FF93E0917A03F0917B0375
:101620008081E0918003F091810382FD1BC0908155
:10163000809183038F5F8F7320918403821741F021
:10164000E0918303F0E0E659FC4F958F809383038C
:10165000FF91EF919F918F912F910F900FBE0F905F
:101660001F9018958081F4CF1F920F920FB60F92A2
:1016700011242F933F934F935F936F937F938F9397
:101680009F93AF93BF93CF93DF93EF93FF9380919B
:10169000D402C0913704D0E087FF24C010928500A7
:1016A000109284008091D4028F5F8093D402809145
:1016B000D402082E000C990B8C179D0724F48091FE
:1016C000D4028C30C4F180918400909185000496FE
:1016D00080349C4908F47AC0809184009091850000
:1016E000049676C08091D402082E000C990B8C17BA
:1016F0009D07C4F6E091D4028E2FEE0F990BFC01EA
:10170000EE0FFF1FE80FF91FED5EFB4F808186FF94
:10171000C9CFE091D4028E2FEE0F990BFC01EE0F92
:10172000FF1FE80FF91FED5EFB4F808160E08F73B4
:101730000E940001B7CF2091840030918500E09194
:10174000D4028E2FEE0F990BFC01EE0FFF1FE80F56
:10175000F91FED5EFB4F81819281820F931F909361
:10176000890080938800E091D4028E2FEE0F990BB0
:10177000FC01EE0FFF1FE80FF91FED5EFB4F8081AC
:1017800086FF11C0E091D4028E2FEE0F990BFC0161
:10179000EE0FFF1FE80FF91FED5EFB4F808161E048
:1017A0008F730E940001FF91EF91DF91CF91BF9164
:1017B000AF919F918F917F916F915F914F913F91E9
:1017C0002F910F900FBE0F901F90189580E49CE909
:1017D00090938900809388008FEF8093D402E3CFA9
:1017E0001F920F920FB60F9211242F933F934F9396
:1017F0005F936F937F938F939F93AF93BF93EF9379
:10180000FF938091B900887F803609F44AC0F0F5D3
:10181000883209F4A7C018F5803109F49BC0B8F4E8
:10182000882309F4F9C0883009F494C0FF91EF913E
:10183000BF91AF919F918F917F916F915F914F91E8
:101840003F912F910F900FBE0F901F9018958831E8
:1018500009F488C0803251F780933E0314C080346D
:1018600009F49DC040F48033B9F38833F9F68093CE
:101870003E0385ECB0C0803509F485C0883509F495
:1018800096C0883499F60E945A0AD0CF883909F454
:101890008CC038F5883729F050F4883611F080373D
:1018A00029F683E0809340031092D30257C0883812
:1018B00009F47BC0803919F0803809F0B7CF8091E6
:1018C000D302803208F071C0E091D30281E08E0F24
:1018D0008093D3028091BB00F0E0ED54FD4F8083F4
:1018E0003DC0803B39F0E0F4803A09F479C0883A91
:1018F00009F09CCF84E0809340031092B2021092D2
:10190000B102E091F202F091F30209958091B102E7
:1019100081110FC081E08093B1021092910209C041
:10192000803C09F4A6CF883C09F4A3CF883B09F09A
:101930007DCFE091B20281E08E0F8093B202F0E0A1
:10194000EF56FD4F80818093BB009091B202809151
:10195000B10229C080911B038093BB0085EC80936A
:10196000BC0064CF90913D0380913C03981758F5DB
:10197000E0913D0381E08E0F80933D03F0E0E45E53
:10198000FC4F8081E9CFE0913D0381E08E0F809391
:101990003D038091BB00F0E0E45EFC4F80839091BA
:1019A0003D0380913C039817C8F285E8D8CFE091B9
:1019B0003D0381E08E0F80933D038091BB00F0E0FA
:1019C000E45EFC4F808380913F0381115CCF81E016
:1019D00080931A0384EA8093BC001092400326CFC0
:1019E00085EC8093BC00109240038091D30280323A
:1019F00030F4E091D302F0E0ED54FD4F108260919D
:101A0000D30270E0E091F002F091F10283EB92E0FA
:101A100009951092D3020ACF10923E0334CFFC01F5
:101A2000908190539A3008F090E0818180532AE0B1
:101A3000929F800D1124089510926D0310926C03F3
:101A400088EE93E0A0E0B0E080936E0390936F0384
:101A5000A0937003B093710326E631E030936B03DB
:101A600020936A0325EC30E03093770320937603CC
:101A700024EC30E0309379032093780320EC30E0BD
:101A800030937B0320937A0321EC30E030937D0385
:101A900020937C0322EC30E030937F0320937E037D
:101AA00026EC30E03093810320938003109283036F
:101AB00010928403109285031092860310920A04F8
:101AC0001092090480930B0490930C04A0930D04CE
:101AD000B0930E0488E791E0909308048093070484
:101AE000809137048C3008F04BC091E0980F9093B0
:101AF00037048093630490E0FC01EE0FFF1FE80FB2
:101B0000F91FED5EFB4F88EB9BE09283818310927F
:101B10005A04109259048AE891E0909358048093F3
:101B2000570480E280935B0484E18093600484E046
:101B300080936104109262048DE0809349048BE0ED
:101B400080934A04EBEDF0E0E491E0934B04E7EC82
:101B5000F0E0E491E0934C0480E89EE3A0E0B0E084
:101B60008093510490935204A0935304B09354046F
:101B70008EE394E00E94110A88E394E00C94110A29
:101B80008FEF80936304C3CFCF93DF93CDB7DEB7DE
:101B90002C970FB6F894DEBF0FBECDBF789484B5F6
:101BA000826084BD84B5816084BD85B5826085BD59
:101BB00085B5816085BD80916E00816080936E00E7
:101BC00010928100809181008260809381008091D9
:101BD000810081608093810080918000816080938A
:101BE00080008091B10084608093B1008091B0004A
:101BF00081608093B00080917A00846080937A0045
:101C000080917A00826080937A0080917A0081606E
:101C100080937A0080917A00806880937A00109295
:101C2000C1000E942A04E0917A03F0917B0312E044
:101C3000E12EE082E0917603F09177031082E0914B
:101C40007803F09179038FEC808310928203E09106
:101C50007E03F0917F0386E08083E0917C03F09126
:101C60007D03808180618083E0917C03F0917D031E
:101C7000808188608083E0917C03F0917D03808186
:101C800080688083E0917C03F0917D0380818F7D6B
:101C9000808362E0809149040E942E012FB7F8945E
:101CA0008091F4029091F502A091F602B091F702B2
:101CB0002FBF805D9740A109B10980934D04909397
:101CC0004E04A0934F04B093500487E380935604CE
:101CD00080915C04886080935C0404E0D02ED092F4
:101CE0005F0462E370E080E090E00E948F01609109
:101CF000620487E594E00E94D80568EE73E080E016
:101D000090E00E948F0160E387E594E00E94C207A3
:101D10000BE416E4C8010197F1F760E387E594E06E
:101D20000E94C207C8010197F1F760E387E594E0DC
:101D30000E94C20783E592E00197F1F760E287E530
:101D400094E00E94C20760915C04606240E087E515
:101D500094E00E94DB07D0925D0440E06CE087E5F0
:101D600094E00E94DB070E942408E0925E0440E0B9
:101D700066E087E594E00E94DB0740E062E087E5EB
:101D800094E00E94DB078BE39FE10197F1F78091DC
:101D900063048C3008F051C061E089E00E942E019C
:101DA00080916304282F30E0F901EE0FFF1FE20F4E
:101DB000F31FED5EFB4F9081907C996090831092B1
:101DC0006404109265042CE0622F0E94CA16829F60
:101DD000B001112430E020E0AB01420F531FFA01A3
:101DE000EE0FFF1FE40FF51FED5EFB4F908196FD98
:101DF00016C02F5F3F4F2C30310571F781110FC096
:101E00001092800082E080938100109285001092F1
:101E10008400B19A80916F00826080936F00E0919E
:101E200063048E2F90E0FC01EE0FFF1FE80FF91FF7
:101E3000ED5EFB4F8081806480838091E102909110
:101E4000E202009711F00E948C1786E090E00E9459
:101E5000F0168C0188E6F801808387E094E0928395
:101E60008183138280E290E0958384831093E20261
:101E70000093E1020E942A04EE24E394F801E38235
:101E8000C8010E940D06811111C061EA71E08AE665
:101E900093E00E94C5098AE693E00E94C4036AE0C9
:101EA00070E080E090E00E948F01F9CF1C86809165
:101EB000E1029091E202FC0124813581232B89F01B
:101EC0002081E0924603209368031092470310920A
:101ED000690321E041E050E0BE01645F7F4F0E9452
:101EE000EF0541E050E08E010F5F1F4FB801809178
:101EF000E1029091E2020E949D06898190E0880FA4
:101F0000892F881F990B892B09F4ADC063EB71E011
:101F10008AE693E00E94C5094BE050E061E770E07B
:101F2000C8010E94F313CE010A960E940F0DE82EFD
:101F3000E981E154E33130F50E2E000CFF0BED5535
:101F4000F04F0C94EA165F10C20FC20F7A10C20F46
:101F50007D10C20FC20FC20FB60FC20FC20F6810A2
:101F600077107410C20FC20FC20F71108A81FF2444
:101F7000F394813639F08B8126E0F22E8E3611F003
:101F800097E0F92ECE0105960E940F0DD82E48E05D
:101F900050E068E670E0C8010E94F313C8010E9497
:101FA0000F0DC82ECE0104960E940F0DB82ECE0143
:101FB00007960E940F0D382F86E0F80111928A953E
:101FC000E9F72AE0832F622F0E94CA16982F880F04
:101FD000890F880F830F8A838B2D0E94CA16982F32
:101FE000880F890F880F8B0D8B838C2D0E94CA164A
:101FF000982F880F890F880F8C0D8C838D2D0E9450
:10200000CA16982F880F890F880F8D0D8E838F2DFC
:102010000E94CA16982F990F890F880FF80EFF8219
:102020008E2D0E94CA16982F880F890F880F8E0D4B
:1020300088878091E1029091E202FC012481358140
:102040002830310580F0208131E030934603209321
:102050006803109247031092690321E048E050E0C2
:10206000B8010E94EF0560E08AE00E942E018DE633
:10207000C82EDD24D39498ED692E90E0792E24ECBF
:10208000A22E20E0B22E30E0832E30E0932E6CE2C0
:1020900071E080E090E00E948F010E94C1018823DE
:1020A00049F080914A048C3009F486C048F58B30A1
:1020B00009F43FC060E070E080EC9FE762C08B8174
:1020C000B8E0FB2E823709F05DCF84E0F82E5ACFBE
:1020D0008B81A3E0FA2E823709F454CFF5E0FF2E6E
:1020E00051CFE9E0FE2E4ECF7AE0F72E4BCF6BE0DA
:1020F000F62E48CF5CE0F52E45CF42E0F42E42CFDD
:1021000085518230B8F6F09046046F2D70E0762F3E
:10211000662766277F7780914704682B90E080E0F0
:102120000E9401142DEC3CEC4CEC5DE30E94621427
:102130005FC06091460470E090E080E00E9401146E
:102140001B012C01F0904704F7FE0AC0AC019B0173
:1021500060E070E080E89FEB0E94B2151B012C014B
:102160006F2D6F7070E090E080E00E9403142DEC02
:102170003CEC4CEC5DE30E946214A20191010E94D0
:10218000B3156093E7027093E8028093E90290939D
:10219000EA020E94C101882351F080914A048B30E9
:1021A00030F08D3048F18551823008F4E9C060E0AC
:1021B00070E080EC9FE73CC0F09046046F2D70E02B
:1021C00090E080E00E9401141B012C016091470403
:1021D0006F7070E090E080E00E9403142DEC3CEC06
:1021E0004CEC5DE30E946214A20191010E94B315C0
:1021F000F7FEC7CF9058C5CF6091450470E090E0DE
:1022000080E00E9403142DEC3CEC4CEC5DE30E945A
:1022100062141B012C016091440470E090E080E0A6
:102220000E9403149B01AC01C201B1010E94B315CD
:102230006093E3027093E4028093E5029093E602D8
:102240001982E090E102F090E202F7018481958129
:10225000892BC9F08081F1E0F093460380936803F5
:10226000109247031092690320E041E050E0B8016A
:10227000C7010E94EF05882331F047E050E0B80124
:10228000C7010E949D0629812F77822F90E054E09C
:10229000959587955A95E1F7982F990F990F382EB4
:1022A000391A330C320E2A81822F90E064E0959522
:1022B00087956A95E1F7982F990F990F582E591A1B
:1022C000550C520E2B81822F90E074E095958795E6
:1022D0007A95E1F7982F990F990F482E491A440CD7
:1022E000420E8D81482F50E0E4E055954795EA95E0
:1022F000E1F7942F990F990F242F291B220F280FF4
:102300003E81832F90E0F4E095958795FA95E1F76B
:10231000982F990F990F482F491B440F430F3F8166
:10232000832F90E0A4E095958795AA95E1F7982FE3
:10233000990F990F582F591B952F990F930F692FAC
:1023400070E07B0180E3E81A88EFF80AF092E0027F
:10235000E092DF02E42FF0E0F093DE02E093DD0292
:1023600030E03093DC022093DB02EDE7F0E081E027
:102370008417C0F45491250F311D8F5F3196F8CF2B
:10238000609144047091450476276727762790E092
:1023900080E00E9401142DEC3CEC4CEC5DE30E94CB
:1023A000621446CF433020F0937011F42F5F3F4FFB
:1023B000CB01039696958795969587956C9DA00180
:1023C0006D9D500D7C9D500D11244B5F5F4F840F10
:1023D000951F820F931F67E070E00E94D616ECE015
:1023E000E89FB001E99F700D112460507F4F8EE38C
:1023F00094E00E942F0A842D90E09093DA0280935B
:10240000D902852D90E09093D8028093D702832D36
:1024100090E09093D6028093D502FBE06BED71E0E3
:10242000F41510F06FED71E088E394E00E942F0A3C
:10243000B70187E594E00E9490086FE287E594E099
:102440000E94D0026091DD027091DE0287E594E087
:102450000E9490086FE287E594E00E94D0026091AC
:10246000DB027091DC0287E594E00E94900887E52A
:1024700094E00E94AC098EE394E00E94B00982E0EF
:102480000E94F2076091D9027091DA0287E594E028
:102490000E9490086FE287E594E00E94D00260916C
:1024A000D7027091D80287E594E00E9490086FE20D
:1024B00087E594E00E94D0026091D5027091D60227
:1024C00087E594E00E94900888E394E00E94B009B8
:1024D00068EE73E080E090E00E948F016CEB72E0A8
:1024E00080E090E00E948F010E94240863EE71E07A
:1024F00087E594E00E9435084091E7025091E80298
:102500006091E9027091EA0222E087E594E00E947E
:10251000C6086AEE71E087E594E00E94C50982E092
:102520000E94F2076DEE71E087E594E00E94C50914
:102530004091E3025091E4026091E5027091E6025D
:1025400022E087E594E00E94C60863EE71E08AE627
:1025500093E00E9435084091E7025091E8026091B3
:10256000E9027091EA0222E08AE693E00E94C6083E
:102570008AE693E00E94AC0968EF71E08AE693E096
:102580000E9435084091E3025091E4026091E50217
:102590007091E60222E08AE693E00E94C6086CEBA6
:1025A00072E080E090E00E948F016091D90270910A
:1025B000DA028AE693E00E9490088AE693E00E949D
:1025C000AC096091DF027091E0028AE693E00E941C
:1025D00090086FE28AE693E00E94D0026091DD02EB
:1025E0007091DE028AE693E00E9490086FE28AE62C
:1025F00093E00E94D0026091DB027091DC028AE6D7
:1026000093E00E94900863E072E08AE693E00E9403
:102610003508409142045091430460913E0470910A
:102620003F048AE693E00E94D70266E072E08AE601
:1026300093E00E9435086091D9027091DA028AE62F
:1026400093E00E9490086AE38AE693E00E94D00239
:102650006091D7027091D8028AE693E00E949008B8
:102660006AE38AE693E00E94D0026091D5027091FD
:10267000D6028AE693E00E94900840913C04509173
:102680003D0460913804709139048AE693E00E9419
:10269000D7028AE693E00E94AC098AE693E00E94A2
:1026A000AC0920E030E044EB52E46091E302709129
:1026B000E4028091E5029091E6020E94C01687FF35
:1026C0004BC08091D9029091DA020A97069708F0E0
:1026D00041C080E00E943206E6EAF0E08491F30116
:1026E000F490F501E490EE2009F464C081110E9499
:1026F000D700EE2DF0E0EE0FFF1FE055FF4FA59144
:10270000B4918C91F82209F455C080E00E94320601
:102710000E94240866E572E087E594E00E9435088F
:1027200064EF71E080E090E00E948F0164EF71E05F
:1027300080E090E00E948F010E942408811491049F
:1027400009F4A5CC0E944103882309F4A0CC0E947F
:1027500000009DCC8AE5BECF80E00E94F2070E9477
:10276000240869E072E087E594E00E94C50968EEFC
:1027700073E080E090E00E948F010E9424086BE1EA
:1027800072E087E594E00E94C50968EE73E080E09E
:1027900090E00E948F010E9424086CE272E087E5BD
:1027A00094E00E94C50968EE73E080E090E00E942A
:1027B0008F0192CF8AE50E9432060E94240863E7C7
:1027C00072E0AACF8091380490913904009711F0FB
:1027D0000E948C1780913E0490913F04009711F065
:1027E0000C948C170895FB01DC0102C005900D923A
:1027F00041505040D8F708950E943E1408F481E0FB
:102800000895E89409C097FB3EF4909580957095E3
:1028100061957F4F8F4F9F4F9923A9F0F92F96E92C
:10282000BB279395F695879577956795B795F111A1
:10283000F8CFFAF4BB0F11F460FF1BC06F5F7F4F3E
:102840008F4F9F4F16C0882311F096E911C0772350
:1028500021F09EE8872F762F05C0662371F096E859
:10286000862F70E060E02AF09A95660F771F881F28
:10287000DAF7880F9695879597F90895990F0008CC
:10288000550FAA0BE0E8FEEF16161706E807F90742
:10289000C0F012161306E407F50798F0621B730BDD
:1028A000840B950B39F40A2661F0232B242B252B5E
:1028B00021F408950A2609F4A140A6958FEF811D01
:1028C000811D08950E9475140C94E6140E94D8147A
:1028D00038F00E94DF1420F0952311F00C94CF14EF
:1028E0000C94D51411240C941A150E94F71470F34B
:1028F000959FC1F3950F50E0551F629FF001729FA5
:10290000BB27F00DB11D639FAA27F00DB11DAA1FB3
:10291000649F6627B00DA11D661F829F2227B00D00
:10292000A11D621F739FB00DA11D621F839FA00D8B
:10293000611D221F749F3327A00D611D231F849FDB
:10294000600D211D822F762F6A2F11249F57504032
:102950009AF0F1F088234AF0EE0FFF1FBB1F661FAD
:10296000771F881F91505040A9F79E3F510580F076
:102970000C94CF140C941A155F3FE4F3983ED4F3F3
:10298000869577956795B795F795E7959F5FC1F71A
:10299000FE2B880F911D9695879597F9089597F9C5
:1029A0009F6780E870E060E008959FEF80EC0895F5
:1029B00000240A941616170618060906089500241E
:1029C0000A9412161306140605060895092E039498
:1029D000000C11F4882352F0BB0F40F4BF2B11F40C
:1029E00060FF04C06F5F7F4F8F4F9F4F089557FD6B
:1029F0009058440F551F59F05F3F71F04795880F6D
:102A000097FB991F61F09F3F79F087950895121603
:102A100013061406551FF2CF4695F1DF08C01616AF
:102A200017061806991FF1CF869571056105089460
:102A30000895E894BB2766277727CB0197F9089577
:102A4000052E97FB1EF400940E94371557FD07D002
:102A50000E94811507FC03D04EF40C943715509555
:102A60004095309521953F4F4F4F5F4F089590957A
:102A70008095709561957F4F8F4F9F4F08950E946D
:102A8000A315A59F900DB49F900DA49F800D911D3F
:102A9000112408952F923F924F925F926F927F92EE
:102AA0008F929F92AF92BF92CF92DF92EF92FF925E
:102AB0000F931F93CF93DF93CDB7DEB7CA1BDB0B0A
:102AC0000FB6F894DEBF0FBECDBF09942A883988AF
:102AD00048885F846E847D848C849B84AA84B984B6
:102AE000C884DF80EE80FD800C811B81AA81B981C2
:102AF000CE0FD11D0FB6F894DEBF0FBECDBFED01D6
:102B00000895A1E21A2EAA1BBB1BFD010DC0AA1F2E
:102B1000BB1FEE1FFF1FA217B307E407F50720F046
:102B2000A21BB30BE40BF50B661F771F881F991FC1
:102B30001A9469F760957095809590959B01AC010A
:102B4000BD01CF010895A29FB001B39FC001A39F13
:102B5000700D811D1124911DB29F700D811D1124D6
:102B6000911D08955058BB27AA270E94CA150C949E
:102B7000E6140E94D81438F00E94DF1420F039F4D3
:102B80009F3F19F426F40C94D5140EF4E095E7FB5E
:102B90000C94CF14E92F0E94F71458F3BA17620768
:102BA00073078407950720F079F4A6F50C9419159E
:102BB0000EF4E0950B2EBA2FA02D0B01B901900158
:102BC0000C01CA01A0011124FF27591B99F0593F9C
:102BD00050F4503E68F11A16F040A22F232F342FE4
:102BE0004427585FF3CF469537952795A795F04032
:102BF0005395C9F77EF41F16BA0B620B730B840B47
:102C0000BAF09150A1F0FF0FBB1F661F771F881FFE
:102C1000C2F70EC0BA0F621F731F841F48F4879556
:102C200077956795B795F7959E3F08F0B0CF939548
:102C3000880F08F09927EE0F9795879508950E94C1
:102C400033160C94E6140E94DF1458F00E94D81436
:102C500040F029F45F3F29F00C94CF1451110C94EB
:102C60001A150C94D5140E94F71468F39923B1F344
:102C7000552391F3951B550BBB27AA2762177307A2
:102C8000840738F09F5F5F4F220F331F441FAA1F36
:102C9000A9F335D00E2E3AF0E0E832D091505040F2
:102CA000E695001CCAF72BD0FE2F29D0660F771FA0
:102CB000881FBB1F261737074807AB07B0E809F086
:102CC000BB0B802DBF01FF2793585F4F3AF09E3F0B
:102CD000510578F00C94CF140C941A155F3FE4F36F
:102CE000983ED4F3869577956795B795F7959F5F4E
:102CF000C9F7880F911D9695879597F90895E1E09A
:102D0000660F771F881FBB1F621773078407BA07F8
:102D100020F0621B730B840BBA0BEE1F88F7E09553
:102D200008950E94FF1488F09F5798F0B92F9927B3
:102D3000B751B0F0E1F0660F771F881F991F1AF0A6
:102D4000BA95C9F714C0B13091F00E941915B1E0DD
:102D500008950C941915672F782F8827B85F39F0DC
:102D6000B93FCCF3869577956795B395D9F73EF43F
:102D700090958095709561957F4F8F4F9F4F0895E7
:102D80000E943E1408F48FEF08950E943E14880BB1
:102D9000990B0895991B79E004C0991F961708F0C4
:102DA000961B881F7A95C9F780950895AA1BBB1BAF
:102DB00051E107C0AA1FBB1FA617B70710F0A61B3B
:102DC000B70B881F991F5A95A9F780959095BC015C
:102DD000CD010895EE0FFF1F0590F491E02D0994A9
:102DE0000F931F93CF93DF938230910510F482E00D
:102DF00090E0E0916804F091690430E020E0B0E0F8
:102E0000A0E0309799F42115310509F44AC0281B38
:102E1000390B24303105D8F58A819B816115710504
:102E200089F1FB0193838283FE0111C040815181AE
:102E30000281138148175907E0F04817590799F4A0
:102E4000109761F012960C93129713961C9332967A
:102E5000CF01DF91CF911F910F91089500936804E6
:102E600010936904F4CF2115310551F0421753072F
:102E700038F0A901DB019A01BD01DF01F801C1CFE2
:102E8000EF01F9CF9093690480936804CDCFFE01E0
:102E9000E20FF31F819391932250310939832883E4
:102EA000D7CF2091660430916704232B41F4209101
:102EB00056013091570130936704209366042091A6
:102EC0005401309155012115310541F42DB73EB71C
:102ED0004091580150915901241B350BE091660433
:102EE000F0916704E217F307A0F42E1B3F0B28179D
:102EF000390778F0AC014E5F5F4F2417350748F073
:102F00004E0F5F1F50936704409366048193919323
:102F10009FCFF0E0E0E09CCFCF93DF930097E9F004
:102F2000FC01329713821282A0916804B091690467
:102F3000ED0130E020E01097A1F420813181820F73
:102F4000931F20916604309167042817390709F010
:102F500061C0F0936704E0936604DF91CF91089518
:102F6000EA01CE17DF07E8F54A815B819E01411532
:102F70005105B1F7E901FB83EA8349915991C40FE7
:102F8000D51FEC17FD0761F4808191810296840FB3
:102F9000951FE90199838883828193819B838A832A
:102FA000F0E0E0E012968D919C9113970097B9F5AF
:102FB0002D913C911197CD010296820F931F209184
:102FC0006604309167042817390739F6309751F5B0
:102FD0001092690410926804B0936704A093660489
:102FE000BCCFD383C28340815181840F951FC81702
:102FF000D90761F44E5F5F4F88819981480F591F4F
:10300000518340838A819B8193838283211531057B
:1030100009F0B0CFF0936904E09368049ECFFD01FE
:10302000DC01C0CF13821282D7CFB0E0A0E0EBE189
:10303000F8E10C944C158C01009751F4CB010E94DF
:10304000F0168C01C801CDB7DEB7E0E10C9468152D
:10305000FC01E60FF71F9C0122503109E217F3072C
:1030600008F49DC0D901CD91DC911197C617D707FF
:1030700098F0C530D10530F3CE0104978617970735
:1030800008F3C61BD70B2297C193D1936D937C9302
:10309000CF010E948C17D6CF5B01AC1ABD0A4C0140
:1030A0008C0E9D1EA0916804B0916904512C412C96
:1030B000F12CE12C109731F5809166049091670412
:1030C0008815990509F05CC04616570608F058C0E7
:1030D0008091540190915501009741F48DB79EB7AE
:1030E0004091580150915901841B950BE817F9073D
:1030F00008F055C0F0936704E0936604F90171830A
:103100006083A0CF8D919C91119712966C9012972D
:1031100013967C901397A815B90559F56C0142E0F8
:10312000C40ED11CCA14DB0420F1AC014A195B099E
:10313000DA011296159780F0628273825183408380
:10314000D9016D937C93E114F10471F0D7011396CA
:10315000FC93EE93129776CF22968C0F9D1FF90168
:1031600091838083F301EFCFF0936904E0936804C7
:1031700069CF4816590608F42C017D01D3019ACF76
:10318000CB010E94F0167C01009749F0AE01B80116
:103190000E94D218C8010E948C17870153CF10E0FB
:1031A00000E050CFFB01DC0102C001900D924150C4
:1031B0005040D8F70895FB01DC0101900D920020EA
:1031C000E1F7089510E0C2E7D0E004C0FE010E94DC
:0E31D000EA162196C337D107C9F7F894FFCF4E
:1031DE0053756E6461790000000000004D6F6E64DF
:1031EE006179000000000000547565736461790018
:1031FE00000000005765646E65736461790000001D
:10320E0054687572736461790000000046726964D7
:10321E006179000000000000536174757264617979
:10322E000000000000006A0480000000400014004E
:10323E005400000000007703D7020403C4033503D3
:10324E001303270300000000A9057C05EC055205B9
:10325E00750562055305000000002F08D702EC0526
:10326E00E4036E616E00696E66006F7666000D0A8D
:10327E0000436F756C646E27742066696E6420520D
:10328E00544300525443206973204E4F542072759C
:10329E006E6E696E672C206C65742773207365746F
:1032AE00207468652074696D65210020504D0020E2
:1032BE00414D0054454D503A200020430048756D55
:1032CE0069646974793A200048756D69646174792E
:1032DE003A2000202800292000697427732072618B
:1032EE00696E696E67206E6F772E0057696E646F18
:1032FE007720697320636C6F73656400696620794B
:10330E006F752077616E6E61206F70656E206974C7
:10331E002C20636C69636B206F6E2074686520626D
:10332E007574746F6E00636C69636B2074686520CE
:10333E00627574746F6E20746F20636C6F7365208A
:10334E00697400636C69636B2074686520627574C0
:10335E00746F6E20746F206F70656E20697400003C
:00000001FF
